{
  "_format": "hh-sol-artifact-1",
  "contractName": "SplitPayment",
  "sourceName": "contracts/SplitPayment.sol",
  "abi": [
    {
      "inputs": [
        {
          "internalType": "address",
          "name": "_taxWallet",
          "type": "address"
        },
        {
          "internalType": "address[]",
          "name": "_validStablecoins",
          "type": "address[]"
        },
        {
          "internalType": "address",
          "name": "_uniswapRouter",
          "type": "address"
        }
      ],
      "stateMutability": "nonpayable",
      "type": "constructor"
    },
    {
      "anonymous": false,
      "inputs": [
        {
          "indexed": true,
          "internalType": "address",
          "name": "recipient",
          "type": "address"
        },
        {
          "indexed": false,
          "internalType": "address",
          "name": "tokenIn",
          "type": "address"
        },
        {
          "indexed": false,
          "internalType": "uint256",
          "name": "amountIn",
          "type": "uint256"
        },
        {
          "indexed": false,
          "internalType": "address",
          "name": "tokenOut",
          "type": "address"
        },
        {
          "indexed": false,
          "internalType": "uint256",
          "name": "amountOut",
          "type": "uint256"
        },
        {
          "indexed": false,
          "internalType": "uint24",
          "name": "feeTier",
          "type": "uint24"
        },
        {
          "indexed": false,
          "internalType": "uint256",
          "name": "taxAmount",
          "type": "uint256"
        }
      ],
      "name": "PaymentSplit",
      "type": "event"
    },
    {
      "inputs": [
        {
          "internalType": "address",
          "name": "_validStablecoin",
          "type": "address"
        }
      ],
      "name": "addValidStablecoin",
      "outputs": [],
      "stateMutability": "nonpayable",
      "type": "function"
    },
    {
      "inputs": [],
      "name": "getValidStablecoins",
      "outputs": [
        {
          "internalType": "address[]",
          "name": "",
          "type": "address[]"
        }
      ],
      "stateMutability": "view",
      "type": "function"
    },
    {
      "inputs": [
        {
          "internalType": "address",
          "name": "_stablecoinAddress",
          "type": "address"
        }
      ],
      "name": "isValidStablecoin",
      "outputs": [
        {
          "internalType": "bool",
          "name": "",
          "type": "bool"
        }
      ],
      "stateMutability": "view",
      "type": "function"
    },
    {
      "inputs": [],
      "name": "owner",
      "outputs": [
        {
          "internalType": "address",
          "name": "",
          "type": "address"
        }
      ],
      "stateMutability": "view",
      "type": "function"
    },
    {
      "inputs": [
        {
          "internalType": "address",
          "name": "_validStablecoin",
          "type": "address"
        }
      ],
      "name": "removeValidStablecoin",
      "outputs": [],
      "stateMutability": "nonpayable",
      "type": "function"
    },
    {
      "inputs": [
        {
          "internalType": "uint256",
          "name": "_taxPercentage",
          "type": "uint256"
        }
      ],
      "name": "setTaxPercentage",
      "outputs": [],
      "stateMutability": "nonpayable",
      "type": "function"
    },
    {
      "inputs": [
        {
          "internalType": "address",
          "name": "_taxWallet",
          "type": "address"
        }
      ],
      "name": "setTaxWallet",
      "outputs": [],
      "stateMutability": "nonpayable",
      "type": "function"
    },
    {
      "inputs": [
        {
          "internalType": "address",
          "name": "_uniswapRouter",
          "type": "address"
        }
      ],
      "name": "setUniswapRouter",
      "outputs": [],
      "stateMutability": "nonpayable",
      "type": "function"
    },
    {
      "inputs": [
        {
          "internalType": "address",
          "name": "tokenIn",
          "type": "address"
        },
        {
          "internalType": "uint256",
          "name": "amountIn",
          "type": "uint256"
        },
        {
          "internalType": "address",
          "name": "tokenOut",
          "type": "address"
        },
        {
          "internalType": "uint24",
          "name": "feeTier",
          "type": "uint24"
        }
      ],
      "name": "splitAndSwapPayment",
      "outputs": [
        {
          "internalType": "uint256",
          "name": "amountOut",
          "type": "uint256"
        }
      ],
      "stateMutability": "nonpayable",
      "type": "function"
    },
    {
      "inputs": [],
      "name": "taxPercentage",
      "outputs": [
        {
          "internalType": "uint256",
          "name": "",
          "type": "uint256"
        }
      ],
      "stateMutability": "view",
      "type": "function"
    },
    {
      "inputs": [],
      "name": "taxWallet",
      "outputs": [
        {
          "internalType": "address",
          "name": "",
          "type": "address"
        }
      ],
      "stateMutability": "view",
      "type": "function"
    },
    {
      "inputs": [],
      "name": "uniswapRouter",
      "outputs": [
        {
          "internalType": "address",
          "name": "",
          "type": "address"
        }
      ],
      "stateMutability": "view",
      "type": "function"
    },
    {
      "inputs": [
        {
          "internalType": "uint256",
          "name": "",
          "type": "uint256"
        }
      ],
      "name": "validStablecoins",
      "outputs": [
        {
          "internalType": "address",
          "name": "",
          "type": "address"
        }
      ],
      "stateMutability": "view",
      "type": "function"
    }
  ],
  "bytecode": "0x6080604052600b60045534801561001557600080fd5b506040516112cd3803806112cd83398101604081905261003491610145565b60008054336001600160a01b031991821617909155600180549091166001600160a01b0385161790558151610070906003906020850190610099565b50600280546001600160a01b0319166001600160a01b0392909216919091179055506102379050565b8280548282559060005260206000209081019282156100ee579160200282015b828111156100ee57825182546001600160a01b0319166001600160a01b039091161782556020909201916001909101906100b9565b506100fa9291506100fe565b5090565b5b808211156100fa57600081556001016100ff565b80516001600160a01b038116811461012a57600080fd5b919050565b634e487b7160e01b600052604160045260246000fd5b60008060006060848603121561015a57600080fd5b61016384610113565b60208501519093506001600160401b0381111561017f57600080fd5b8401601f8101861361019057600080fd5b80516001600160401b038111156101a9576101a961012f565b604051600582901b90603f8201601f191681016001600160401b03811182821017156101d7576101d761012f565b6040529182526020818401810192908101898411156101f557600080fd5b6020850194505b8385101561021b5761020d85610113565b8152602094850194016101fc565b50945061022e9250505060408501610113565b90509250925092565b611087806102466000396000f3fe608060405234801561001057600080fd5b50600436106100cf5760003560e01c806384d419541161008c578063ae7b6d1611610066578063ae7b6d16146101c2578063bea9849e146101cb578063d9d1d870146101de578063ea414b28146101f157600080fd5b806384d41954146101795780638da5cb5b1461019c578063a952f2b8146101af57600080fd5b806317507c25146100d457806317da214e146100e95780632dc0562d146101075780636438cd3114610132578063699abb3c14610153578063735de9f714610166575b600080fd5b6100e76100e2366004610d9f565b610204565b005b6100f161034d565b6040516100fe9190610dc1565b60405180910390f35b60015461011a906001600160a01b031681565b6040516001600160a01b0390911681526020016100fe565b610145610140366004610e0d565b6103af565b6040519081526020016100fe565b6100e7610161366004610e64565b6106ef565b60025461011a906001600160a01b031681565b61018c610187366004610d9f565b61078a565b60405190151581526020016100fe565b60005461011a906001600160a01b031681565b6100e76101bd366004610d9f565b6107e9565b61014560045481565b6100e76101d9366004610d9f565b610968565b61011a6101ec366004610e64565b610a0a565b6100e76101ff366004610d9f565b610a34565b6000546001600160a01b031633146102375760405162461bcd60e51b815260040161022e90610e7d565b60405180910390fd5b6001600160a01b0381166102975760405162461bcd60e51b815260206004820152602160248201527f537461626c65636f696e20616464726573732063616e6e6f74206265207a65726044820152606f60f81b606482015260840161022e565b6102a08161078a565b156102fb5760405162461bcd60e51b815260206004820152602560248201527f537461626c65636f696e20616c72656164792065786973747320696e20746865604482015264081b1a5cdd60da1b606482015260840161022e565b600380546001810182556000919091527fc2575a0e9e593c00f959f8c92f12db2869c3395a3b0502d05e2516446f71f85b0180546001600160a01b0319166001600160a01b0392909216919091179055565b606060038054806020026020016040519081016040528092919081815260200182805480156103a557602002820191906000526020600020905b81546001600160a01b03168152600190910190602001808311610387575b5050505050905090565b60008084116104005760405162461bcd60e51b815260206004820152601d60248201527f416d6f756e74206d7573742062652067726561746572207468616e2030000000604482015260640161022e565b6001600160a01b0385161580159061042057506001600160a01b03831615155b61047d5760405162461bcd60e51b815260206004820152602860248201527f546f6b656e20616464726573732063616e6e6f7420626520746865207a65726f604482015267206164647265737360c01b606482015260840161022e565b6002546001600160a01b03166104e75760405162461bcd60e51b815260206004820152602960248201527f556e697377617020726f757465722063616e6e6f7420626520746865207a65726044820152686f206164647265737360b81b606482015260840161022e565b6104f08561078a565b61053c5760405162461bcd60e51b815260206004820152601f60248201527f546f6b656e206973206e6f7420612076616c696420737461626c65636f696e00604482015260640161022e565b61054885333087610a80565b60006103e86004548661055b9190610ed9565b6105659190610ef6565b905060006105738287610f18565b60015490915061058e9088906001600160a01b031684610b8a565b6002546105a69088906001600160a01b031683610c8a565b60025460408051610100810182526001600160a01b038a81168252888116602083015262ffffff881692820192909252336060820152911690600090608081016105f24261012c610f2b565b815260208101859052600060408083018290526060909201525163414bf38960e01b81529091506001600160a01b0383169063414bf38990610638908490600401610f3e565b6020604051808303816000875af1158015610657573d6000803e3d6000fd5b505050506040513d601f19601f8201168201806040525081019061067b9190610fbb565b604080516001600160a01b038c81168252602082018c90528a16818301526060810183905262ffffff8916608082015260a08101879052905191965033917f54be159d644d3d72fcac12865de2e6176eadd8dafa931671c1b98766d557664a9181900360c00190a250505050949350505050565b6000546001600160a01b031633146107195760405162461bcd60e51b815260040161022e90610e7d565b6103e88111156107855760405162461bcd60e51b815260206004820152603160248201527f5461782070657263656e746167652063616e6e6f742062652067726561746572604482015270207468616e20313030302028313030252960781b606482015260840161022e565b600455565b6000805b6003548110156107e057826001600160a01b0316600382815481106107b5576107b5610fd4565b6000918252602090912001546001600160a01b0316036107d85750600192915050565b60010161078e565b50600092915050565b6000546001600160a01b031633146108135760405162461bcd60e51b815260040161022e90610e7d565b6000805b60035481101561091657826001600160a01b03166003828154811061083e5761083e610fd4565b6000918252602090912001546001600160a01b03160361090e576003805461086890600190610f18565b8154811061087857610878610fd4565b600091825260209091200154600380546001600160a01b0390921691839081106108a4576108a4610fd4565b9060005260206000200160006101000a8154816001600160a01b0302191690836001600160a01b0316021790555060038054806108e3576108e3610fea565b600082815260209020810160001990810180546001600160a01b031916905501905560019150610916565b600101610817565b50806109645760405162461bcd60e51b815260206004820152601c60248201527f537461626c65636f696e206e6f7420666f756e6420696e206c69737400000000604482015260640161022e565b5050565b6000546001600160a01b031633146109925760405162461bcd60e51b815260040161022e90610e7d565b6001600160a01b0381166109e85760405162461bcd60e51b815260206004820152601d60248201527f526f7574657220616464726573732063616e6e6f74206265207a65726f000000604482015260640161022e565b600280546001600160a01b0319166001600160a01b0392909216919091179055565b60038181548110610a1a57600080fd5b6000918252602090912001546001600160a01b0316905081565b6000546001600160a01b03163314610a5e5760405162461bcd60e51b815260040161022e90610e7d565b600180546001600160a01b0319166001600160a01b0392909216919091179055565b604080516001600160a01b0385811660248301528481166044830152606480830185905283518084039091018152608490920183526020820180516001600160e01b03166323b872dd60e01b1790529151600092839290881691610ae49190611000565b6000604051808303816000865af19150503d8060008114610b21576040519150601f19603f3d011682016040523d82523d6000602084013e610b26565b606091505b5091509150818015610b50575080511580610b50575080806020019051810190610b50919061102f565b610b825760405162461bcd60e51b815260206004820152600360248201526229aa2360e91b604482015260640161022e565b505050505050565b604080516001600160a01b038481166024830152604480830185905283518084039091018152606490920183526020820180516001600160e01b031663a9059cbb60e01b1790529151600092839290871691610be69190611000565b6000604051808303816000865af19150503d8060008114610c23576040519150601f19603f3d011682016040523d82523d6000602084013e610c28565b606091505b5091509150818015610c52575080511580610c52575080806020019051810190610c52919061102f565b610c835760405162461bcd60e51b815260206004820152600260248201526114d560f21b604482015260640161022e565b5050505050565b604080516001600160a01b038481166024830152604480830185905283518084039091018152606490920183526020820180516001600160e01b031663095ea7b360e01b1790529151600092839290871691610ce69190611000565b6000604051808303816000865af19150503d8060008114610d23576040519150601f19603f3d011682016040523d82523d6000602084013e610d28565b606091505b5091509150818015610d52575080511580610d52575080806020019051810190610d52919061102f565b610c835760405162461bcd60e51b8152602060048201526002602482015261534160f01b604482015260640161022e565b80356001600160a01b0381168114610d9a57600080fd5b919050565b600060208284031215610db157600080fd5b610dba82610d83565b9392505050565b602080825282518282018190526000918401906040840190835b81811015610e025783516001600160a01b0316835260209384019390920191600101610ddb565b509095945050505050565b60008060008060808587031215610e2357600080fd5b610e2c85610d83565b935060208501359250610e4160408601610d83565b9150606085013562ffffff81168114610e5957600080fd5b939692955090935050565b600060208284031215610e7657600080fd5b5035919050565b60208082526026908201527f4f6e6c7920746865206f776e65722063616e2063616c6c20746869732066756e60408201526531ba34b7b71760d11b606082015260800190565b634e487b7160e01b600052601160045260246000fd5b8082028115828204841417610ef057610ef0610ec3565b92915050565b600082610f1357634e487b7160e01b600052601260045260246000fd5b500490565b81810381811115610ef057610ef0610ec3565b80820180821115610ef057610ef0610ec3565b81516001600160a01b03908116825260208084015182169083015260408084015162ffffff169083015260608084015191821690830152610100820190506080830151608083015260a083015160a083015260c083015160c083015260e0830151610fb460e08401826001600160a01b03169052565b5092915050565b600060208284031215610fcd57600080fd5b5051919050565b634e487b7160e01b600052603260045260246000fd5b634e487b7160e01b600052603160045260246000fd5b6000825160005b818110156110215760208186018101518583015201611007565b506000920191825250919050565b60006020828403121561104157600080fd5b81518015158114610dba57600080fdfea264697066735822122056190882854d8e370f18463986932a3ddaecf871062fb95ecd42ecdfd5c0cb1764736f6c634300081c0033",
  "linkReferences": {},
  "deployedLinkReferences": {}
}