{
  "_format": "hh-sol-artifact-1",
  "contractName": "SplitPayment",
  "sourceName": "contracts/SplitPayment.sol",
  "abi": [
    {
      "inputs": [
        {
          "internalType": "address",
          "name": "_taxWallet",
          "type": "address"
        },
        {
          "internalType": "address[]",
          "name": "_validStablecoins",
          "type": "address[]"
        },
        {
          "internalType": "address",
          "name": "_uniswapRouter",
          "type": "address"
        }
      ],
      "stateMutability": "nonpayable",
      "type": "constructor"
    },
    {
      "anonymous": false,
      "inputs": [
        {
          "indexed": true,
          "internalType": "address",
          "name": "recipient",
          "type": "address"
        },
        {
          "indexed": false,
          "internalType": "address",
          "name": "tokenIn",
          "type": "address"
        },
        {
          "indexed": false,
          "internalType": "uint256",
          "name": "amountIn",
          "type": "uint256"
        },
        {
          "indexed": false,
          "internalType": "address",
          "name": "tokenOut",
          "type": "address"
        },
        {
          "indexed": false,
          "internalType": "uint256",
          "name": "amountOut",
          "type": "uint256"
        },
        {
          "indexed": false,
          "internalType": "uint24",
          "name": "feeTier",
          "type": "uint24"
        },
        {
          "indexed": false,
          "internalType": "uint256",
          "name": "taxAmount",
          "type": "uint256"
        }
      ],
      "name": "PaymentSplit",
      "type": "event"
    },
    {
      "inputs": [
        {
          "internalType": "address",
          "name": "_validStablecoin",
          "type": "address"
        }
      ],
      "name": "addValidStablecoin",
      "outputs": [],
      "stateMutability": "nonpayable",
      "type": "function"
    },
    {
      "inputs": [],
      "name": "getValidStablecoins",
      "outputs": [
        {
          "internalType": "address[]",
          "name": "",
          "type": "address[]"
        }
      ],
      "stateMutability": "view",
      "type": "function"
    },
    {
      "inputs": [
        {
          "internalType": "address",
          "name": "_stablecoinAddress",
          "type": "address"
        }
      ],
      "name": "isValidStablecoin",
      "outputs": [
        {
          "internalType": "bool",
          "name": "",
          "type": "bool"
        }
      ],
      "stateMutability": "view",
      "type": "function"
    },
    {
      "inputs": [],
      "name": "owner",
      "outputs": [
        {
          "internalType": "address",
          "name": "",
          "type": "address"
        }
      ],
      "stateMutability": "view",
      "type": "function"
    },
    {
      "inputs": [
        {
          "internalType": "address",
          "name": "_validStablecoin",
          "type": "address"
        }
      ],
      "name": "removeValidStablecoin",
      "outputs": [],
      "stateMutability": "nonpayable",
      "type": "function"
    },
    {
      "inputs": [
        {
          "internalType": "uint256",
          "name": "_taxPercentage",
          "type": "uint256"
        }
      ],
      "name": "setTaxPercentage",
      "outputs": [],
      "stateMutability": "nonpayable",
      "type": "function"
    },
    {
      "inputs": [
        {
          "internalType": "address",
          "name": "_taxWallet",
          "type": "address"
        }
      ],
      "name": "setTaxWallet",
      "outputs": [],
      "stateMutability": "nonpayable",
      "type": "function"
    },
    {
      "inputs": [
        {
          "internalType": "address",
          "name": "_uniswapRouter",
          "type": "address"
        }
      ],
      "name": "setUniswapRouter",
      "outputs": [],
      "stateMutability": "nonpayable",
      "type": "function"
    },
    {
      "inputs": [
        {
          "internalType": "address",
          "name": "tokenIn",
          "type": "address"
        },
        {
          "internalType": "uint256",
          "name": "amountIn",
          "type": "uint256"
        },
        {
          "internalType": "address",
          "name": "tokenOut",
          "type": "address"
        },
        {
          "internalType": "uint24",
          "name": "feeTier",
          "type": "uint24"
        }
      ],
      "name": "splitAndSwapPayment",
      "outputs": [
        {
          "internalType": "uint256",
          "name": "amountOut",
          "type": "uint256"
        }
      ],
      "stateMutability": "nonpayable",
      "type": "function"
    },
    {
      "inputs": [],
      "name": "taxPercentage",
      "outputs": [
        {
          "internalType": "uint256",
          "name": "",
          "type": "uint256"
        }
      ],
      "stateMutability": "view",
      "type": "function"
    },
    {
      "inputs": [],
      "name": "taxWallet",
      "outputs": [
        {
          "internalType": "address",
          "name": "",
          "type": "address"
        }
      ],
      "stateMutability": "view",
      "type": "function"
    },
    {
      "inputs": [],
      "name": "uniswapRouter",
      "outputs": [
        {
          "internalType": "address",
          "name": "",
          "type": "address"
        }
      ],
      "stateMutability": "view",
      "type": "function"
    },
    {
      "inputs": [
        {
          "internalType": "uint256",
          "name": "",
          "type": "uint256"
        }
      ],
      "name": "validStablecoins",
      "outputs": [
        {
          "internalType": "address",
          "name": "",
          "type": "address"
        }
      ],
      "stateMutability": "view",
      "type": "function"
    }
  ],
  "bytecode": "0x6080604052602360045534801561001557600080fd5b5060405161165e38038061165e83398101604081905261003491610145565b60008054336001600160a01b031991821617909155600180549091166001600160a01b0385161790558151610070906003906020850190610099565b50600280546001600160a01b0319166001600160a01b0392909216919091179055506102379050565b8280548282559060005260206000209081019282156100ee579160200282015b828111156100ee57825182546001600160a01b0319166001600160a01b039091161782556020909201916001909101906100b9565b506100fa9291506100fe565b5090565b5b808211156100fa57600081556001016100ff565b80516001600160a01b038116811461012a57600080fd5b919050565b634e487b7160e01b600052604160045260246000fd5b60008060006060848603121561015a57600080fd5b61016384610113565b60208501519093506001600160401b0381111561017f57600080fd5b8401601f8101861361019057600080fd5b80516001600160401b038111156101a9576101a961012f565b604051600582901b90603f8201601f191681016001600160401b03811182821017156101d7576101d761012f565b6040529182526020818401810192908101898411156101f557600080fd5b6020850194505b8385101561021b5761020d85610113565b8152602094850194016101fc565b50945061022e9250505060408501610113565b90509250925092565b611418806102466000396000f3fe608060405234801561001057600080fd5b50600436106100cf5760003560e01c806384d419541161008c578063ae7b6d1611610066578063ae7b6d16146101c2578063bea9849e146101cb578063d9d1d870146101de578063ea414b28146101f157600080fd5b806384d41954146101795780638da5cb5b1461019c578063a952f2b8146101af57600080fd5b806317507c25146100d457806317da214e146100e95780632dc0562d146101075780636438cd3114610132578063699abb3c14610153578063735de9f714610166575b600080fd5b6100e76100e2366004611012565b610204565b005b6100f161034d565b6040516100fe9190611034565b60405180910390f35b60015461011a906001600160a01b031681565b6040516001600160a01b0390911681526020016100fe565b610145610140366004611080565b6103af565b6040519081526020016100fe565b6100e76101613660046110d7565b610823565b60025461011a906001600160a01b031681565b61018c610187366004611012565b6108be565b60405190151581526020016100fe565b60005461011a906001600160a01b031681565b6100e76101bd366004611012565b61091d565b61014560045481565b6100e76101d9366004611012565b610a9c565b61011a6101ec3660046110d7565b610b3e565b6100e76101ff366004611012565b610b68565b6000546001600160a01b031633146102375760405162461bcd60e51b815260040161022e906110f0565b60405180910390fd5b6001600160a01b0381166102975760405162461bcd60e51b815260206004820152602160248201527f537461626c65636f696e20616464726573732063616e6e6f74206265207a65726044820152606f60f81b606482015260840161022e565b6102a0816108be565b156102fb5760405162461bcd60e51b815260206004820152602560248201527f537461626c65636f696e20616c72656164792065786973747320696e20746865604482015264081b1a5cdd60da1b606482015260840161022e565b600380546001810182556000919091527fc2575a0e9e593c00f959f8c92f12db2869c3395a3b0502d05e2516446f71f85b0180546001600160a01b0319166001600160a01b0392909216919091179055565b606060038054806020026020016040519081016040528092919081815260200182805480156103a557602002820191906000526020600020905b81546001600160a01b03168152600190910190602001808311610387575b5050505050905090565b60006103d4604051806040016040528060028152602001616f6960f01b815250610bb4565b600084116104245760405162461bcd60e51b815260206004820152601d60248201527f416d6f756e74206d7573742062652067726561746572207468616e2030000000604482015260640161022e565b6001600160a01b0385161580159061044457506001600160a01b03831615155b6104a15760405162461bcd60e51b815260206004820152602860248201527f546f6b656e20616464726573732063616e6e6f7420626520746865207a65726f604482015267206164647265737360c01b606482015260840161022e565b6002546001600160a01b031661050b5760405162461bcd60e51b815260206004820152602960248201527f556e697377617020726f757465722063616e6e6f7420626520746865207a65726044820152686f206164647265737360b81b606482015260840161022e565b610514856108be565b6105605760405162461bcd60e51b815260206004820152601f60248201527f546f6b656e206973206e6f7420612076616c696420737461626c65636f696e00604482015260640161022e565b6105836040518060600160405280602a81526020016113b9602a91398533610bfa565b61058f85333087610c46565b6105ce6040518060400160405280601f81526020017f5472616e73666572207375636365737366756c2c20616d6f756e743a2025730081525085610d50565b60006103e8600454866105e1919061114c565b6105eb9190611169565b905060006105f9828761118b565b6001549091506106149088906001600160a01b031684610d95565b60408051808201909152601f81527f546178206f662025732073656e7420746f207461782077616c6c6574202573006020820152600154610660919084906001600160a01b0316610bfa565b6002546106789088906001600160a01b031683610e95565b61069a6040518060600160405280602a815260200161138f602a913982610d50565b60025460408051610100810182526001600160a01b038a81168252888116602083015262ffffff881692820192909252336060820152911690600090608081016106e64261012c61119e565b815260208101859052600060408083018290526060909201525163414bf38960e01b81529091506001600160a01b0383169063414bf3899061072c9084906004016111b1565b6020604051808303816000875af115801561074b573d6000803e3d6000fd5b505050506040513d601f19601f8201168201806040525081019061076f919061122e565b94506107b16040518060400160405280601f81526020017f5377617070656420257320746f6b656e7320666f7220257320746f6b656e73008152508487610f8e565b604080516001600160a01b038b81168252602082018b90528916818301526060810187905262ffffff8816608082015260a08101869052905133917f54be159d644d3d72fcac12865de2e6176eadd8dafa931671c1b98766d557664a919081900360c00190a250505050949350505050565b6000546001600160a01b0316331461084d5760405162461bcd60e51b815260040161022e906110f0565b6103e88111156108b95760405162461bcd60e51b815260206004820152603160248201527f5461782070657263656e746167652063616e6e6f742062652067726561746572604482015270207468616e20313030302028313030252960781b606482015260840161022e565b600455565b6000805b60035481101561091457826001600160a01b0316600382815481106108e9576108e9611247565b6000918252602090912001546001600160a01b03160361090c5750600192915050565b6001016108c2565b50600092915050565b6000546001600160a01b031633146109475760405162461bcd60e51b815260040161022e906110f0565b6000805b600354811015610a4a57826001600160a01b03166003828154811061097257610972611247565b6000918252602090912001546001600160a01b031603610a42576003805461099c9060019061118b565b815481106109ac576109ac611247565b600091825260209091200154600380546001600160a01b0390921691839081106109d8576109d8611247565b9060005260206000200160006101000a8154816001600160a01b0302191690836001600160a01b031602179055506003805480610a1757610a1761125d565b600082815260209020810160001990810180546001600160a01b031916905501905560019150610a4a565b60010161094b565b5080610a985760405162461bcd60e51b815260206004820152601c60248201527f537461626c65636f696e206e6f7420666f756e6420696e206c69737400000000604482015260640161022e565b5050565b6000546001600160a01b03163314610ac65760405162461bcd60e51b815260040161022e906110f0565b6001600160a01b038116610b1c5760405162461bcd60e51b815260206004820152601d60248201527f526f7574657220616464726573732063616e6e6f74206265207a65726f000000604482015260640161022e565b600280546001600160a01b0319166001600160a01b0392909216919091179055565b60038181548110610b4e57600080fd5b6000918252602090912001546001600160a01b0316905081565b6000546001600160a01b03163314610b925760405162461bcd60e51b815260040161022e906110f0565b600180546001600160a01b0319166001600160a01b0392909216919091179055565b610bf781604051602401610bc891906112c3565b60408051601f198184030181529190526020810180516001600160e01b031663104c13eb60e21b179052610fd1565b50565b610c41838383604051602401610c12939291906112d6565b60408051601f198184030181529190526020810180516001600160e01b031663038fd88960e31b179052610fd1565b505050565b604080516001600160a01b0385811660248301528481166044830152606480830185905283518084039091018152608490920183526020820180516001600160e01b03166323b872dd60e01b1790529151600092839290881691610caa9190611309565b6000604051808303816000865af19150503d8060008114610ce7576040519150601f19603f3d011682016040523d82523d6000602084013e610cec565b606091505b5091509150818015610d16575080511580610d16575080806020019051810190610d169190611325565b610d485760405162461bcd60e51b815260206004820152600360248201526229aa2360e91b604482015260640161022e565b505050505050565b610a988282604051602401610d66929190611347565b60408051601f198184030181529190526020810180516001600160e01b0316632d839cb360e21b179052610fd1565b604080516001600160a01b038481166024830152604480830185905283518084039091018152606490920183526020820180516001600160e01b031663a9059cbb60e01b1790529151600092839290871691610df19190611309565b6000604051808303816000865af19150503d8060008114610e2e576040519150601f19603f3d011682016040523d82523d6000602084013e610e33565b606091505b5091509150818015610e5d575080511580610e5d575080806020019051810190610e5d9190611325565b610e8e5760405162461bcd60e51b815260206004820152600260248201526114d560f21b604482015260640161022e565b5050505050565b604080516001600160a01b038481166024830152604480830185905283518084039091018152606490920183526020820180516001600160e01b031663095ea7b360e01b1790529151600092839290871691610ef19190611309565b6000604051808303816000865af19150503d8060008114610f2e576040519150601f19603f3d011682016040523d82523d6000602084013e610f33565b606091505b5091509150818015610f5d575080511580610f5d575080806020019051810190610f5d9190611325565b610e8e5760405162461bcd60e51b8152602060048201526002602482015261534160f01b604482015260640161022e565b610c41838383604051602401610fa693929190611369565b60408051601f198184030181529190526020810180516001600160e01b031663ca47c4eb60e01b1790525b610bf78160006a636f6e736f6c652e6c6f679050600080835160208501845afa505050565b80356001600160a01b038116811461100d57600080fd5b919050565b60006020828403121561102457600080fd5b61102d82610ff6565b9392505050565b602080825282518282018190526000918401906040840190835b818110156110755783516001600160a01b031683526020938401939092019160010161104e565b509095945050505050565b6000806000806080858703121561109657600080fd5b61109f85610ff6565b9350602085013592506110b460408601610ff6565b9150606085013562ffffff811681146110cc57600080fd5b939692955090935050565b6000602082840312156110e957600080fd5b5035919050565b60208082526026908201527f4f6e6c7920746865206f776e65722063616e2063616c6c20746869732066756e60408201526531ba34b7b71760d11b606082015260800190565b634e487b7160e01b600052601160045260246000fd5b808202811582820484141761116357611163611136565b92915050565b60008261118657634e487b7160e01b600052601260045260246000fd5b500490565b8181038181111561116357611163611136565b8082018082111561116357611163611136565b81516001600160a01b03908116825260208084015182169083015260408084015162ffffff169083015260608084015191821690830152610100820190506080830151608083015260a083015160a083015260c083015160c083015260e083015161122760e08401826001600160a01b03169052565b5092915050565b60006020828403121561124057600080fd5b5051919050565b634e487b7160e01b600052603260045260246000fd5b634e487b7160e01b600052603160045260246000fd5b60005b8381101561128e578181015183820152602001611276565b50506000910152565b600081518084526112af816020860160208601611273565b601f01601f19169290920160200192915050565b60208152600061102d6020830184611297565b6060815260006112e96060830186611297565b6020830194909452506001600160a01b0391909116604090910152919050565b6000825161131b818460208701611273565b9190910192915050565b60006020828403121561133757600080fd5b8151801515811461102d57600080fd5b60408152600061135a6040830185611297565b90508260208301529392505050565b60608152600061137c6060830186611297565b6020830194909452506040015291905056fe417070726f76656420556e697377617020726f7574657220746f207370656e6420257320746f6b656e735472616e7366657272696e6720257320746f6b656e732066726f6d20257320746f20636f6e7472616374a2646970667358221220fcf593bc00f4fe27591e194e3a7939db78ce8cdd0a02bef14daede41e44b02b064736f6c634300081c0033",
  "linkReferences": {},
  "deployedLinkReferences": {}
}